{
  "_format": "hh-sol-artifact-1",
  "contractName": "BlockFind",
  "sourceName": "contracts/BlockFind.sol",
  "abi": [
    {
      "anonymous": false,
      "inputs": [
        {
          "indexed": false,
          "internalType": "uint256",
          "name": "id",
          "type": "uint256"
        }
      ],
      "name": "ItemFound",
      "type": "event"
    },
    {
      "anonymous": false,
      "inputs": [
        {
          "indexed": false,
          "internalType": "uint256",
          "name": "id",
          "type": "uint256"
        }
      ],
      "name": "ItemMarkedLost",
      "type": "event"
    },
    {
      "anonymous": false,
      "inputs": [
        {
          "indexed": false,
          "internalType": "uint256",
          "name": "id",
          "type": "uint256"
        },
        {
          "indexed": false,
          "internalType": "address",
          "name": "owner",
          "type": "address"
        }
      ],
      "name": "ItemRegistered",
      "type": "event"
    },
    {
      "inputs": [
        {
          "internalType": "uint256",
          "name": "_id",
          "type": "uint256"
        }
      ],
      "name": "getItem",
      "outputs": [
        {
          "components": [
            {
              "internalType": "uint256",
              "name": "id",
              "type": "uint256"
            },
            {
              "internalType": "string",
              "name": "name",
              "type": "string"
            },
            {
              "internalType": "string",
              "name": "description",
              "type": "string"
            },
            {
              "internalType": "address",
              "name": "owner",
              "type": "address"
            },
            {
              "internalType": "bool",
              "name": "isLost",
              "type": "bool"
            }
          ],
          "internalType": "struct BlockFind.Item",
          "name": "",
          "type": "tuple"
        }
      ],
      "stateMutability": "view",
      "type": "function"
    },
    {
      "inputs": [],
      "name": "itemCount",
      "outputs": [
        {
          "internalType": "uint256",
          "name": "",
          "type": "uint256"
        }
      ],
      "stateMutability": "view",
      "type": "function"
    },
    {
      "inputs": [
        {
          "internalType": "uint256",
          "name": "",
          "type": "uint256"
        }
      ],
      "name": "items",
      "outputs": [
        {
          "internalType": "uint256",
          "name": "id",
          "type": "uint256"
        },
        {
          "internalType": "string",
          "name": "name",
          "type": "string"
        },
        {
          "internalType": "string",
          "name": "description",
          "type": "string"
        },
        {
          "internalType": "address",
          "name": "owner",
          "type": "address"
        },
        {
          "internalType": "bool",
          "name": "isLost",
          "type": "bool"
        }
      ],
      "stateMutability": "view",
      "type": "function"
    },
    {
      "inputs": [
        {
          "internalType": "uint256",
          "name": "_id",
          "type": "uint256"
        }
      ],
      "name": "markFound",
      "outputs": [],
      "stateMutability": "nonpayable",
      "type": "function"
    },
    {
      "inputs": [
        {
          "internalType": "uint256",
          "name": "_id",
          "type": "uint256"
        }
      ],
      "name": "markLost",
      "outputs": [],
      "stateMutability": "nonpayable",
      "type": "function"
    },
    {
      "inputs": [
        {
          "internalType": "string",
          "name": "_name",
          "type": "string"
        },
        {
          "internalType": "string",
          "name": "_desc",
          "type": "string"
        }
      ],
      "name": "registerItem",
      "outputs": [],
      "stateMutability": "nonpayable",
      "type": "function"
    }
  ],
  "bytecode": "0x608060405234801561001057600080fd5b50610fb9806100206000396000f3fe608060405234801561001057600080fd5b50600436106100625760003560e01c8063102f7f94146100675780633129e773146100835780634458b231146100b35780634cf516a3146100cf5780636bfb0d01146100eb578063bfb231d214610109575b600080fd5b610081600480360381019061007c919061079e565b61013d565b005b61009d6004803603810190610098919061079e565b6101a6565b6040516100aa9190610943565b60405180910390f35b6100cd60048036038101906100c8919061079e565b610372565b005b6100e960048036038101906100e49190610a9a565b610448565b005b6100f3610594565b6040516101009190610b21565b60405180910390f35b610123600480360381019061011e919061079e565b61059a565b604051610134959493929190610ba4565b60405180910390f35b60006001600083815260200190815260200160002060030160146101000a81548160ff0219169083151502179055507f072765e5479fb889e127cbe8e54ce363e2eb2b4a55c7b2aed06dfe592525dd8a8160405161019b9190610b21565b60405180910390a150565b6101ae61070d565b600160008381526020019081526020016000206040518060a0016040529081600082015481526020016001820180546101e690610c34565b80601f016020809104026020016040519081016040528092919081815260200182805461021290610c34565b801561025f5780601f106102345761010080835404028352916020019161025f565b820191906000526020600020905b81548152906001019060200180831161024257829003601f168201915b5050505050815260200160028201805461027890610c34565b80601f01602080910402602001604051908101604052809291908181526020018280546102a490610c34565b80156102f15780601f106102c6576101008083540402835291602001916102f1565b820191906000526020600020905b8154815290600101906020018083116102d457829003601f168201915b505050505081526020016003820160009054906101000a900473ffffffffffffffffffffffffffffffffffffffff1673ffffffffffffffffffffffffffffffffffffffff1673ffffffffffffffffffffffffffffffffffffffff1681526020016003820160149054906101000a900460ff1615151515815250509050919050565b6001600082815260200190815260200160002060030160009054906101000a900473ffffffffffffffffffffffffffffffffffffffff1673ffffffffffffffffffffffffffffffffffffffff163373ffffffffffffffffffffffffffffffffffffffff16146103e057600080fd5b600180600083815260200190815260200160002060030160146101000a81548160ff0219169083151502179055507f81c672d566068a03cd856b963a35ec8f3957f55c30ad88b219166885988ae91b8160405161043d9190610b21565b60405180910390a150565b60008081548092919061045a90610c94565b91905055506040518060a0016040528060005481526020018381526020018281526020013373ffffffffffffffffffffffffffffffffffffffff1681526020016000151581525060016000805481526020019081526020016000206000820151816000015560208201518160010190816104d49190610e88565b5060408201518160020190816104ea9190610e88565b5060608201518160030160006101000a81548173ffffffffffffffffffffffffffffffffffffffff021916908373ffffffffffffffffffffffffffffffffffffffff16021790555060808201518160030160146101000a81548160ff0219169083151502179055509050507f14fcafb0c9759a8fb3503e9c61cc7b99f2ffaab95287976afe5124991b1193e360005433604051610588929190610f5a565b60405180910390a15050565b60005481565b60016020528060005260406000206000915090508060000154908060010180546105c390610c34565b80601f01602080910402602001604051908101604052809291908181526020018280546105ef90610c34565b801561063c5780601f106106115761010080835404028352916020019161063c565b820191906000526020600020905b81548152906001019060200180831161061f57829003601f168201915b50505050509080600201805461065190610c34565b80601f016020809104026020016040519081016040528092919081815260200182805461067d90610c34565b80156106ca5780601f1061069f576101008083540402835291602001916106ca565b820191906000526020600020905b8154815290600101906020018083116106ad57829003601f168201915b5050505050908060030160009054906101000a900473ffffffffffffffffffffffffffffffffffffffff16908060030160149054906101000a900460ff16905085565b6040518060a00160405280600081526020016060815260200160608152602001600073ffffffffffffffffffffffffffffffffffffffff1681526020016000151581525090565b6000604051905090565b600080fd5b600080fd5b6000819050919050565b61077b81610768565b811461078657600080fd5b50565b60008135905061079881610772565b92915050565b6000602082840312156107b4576107b361075e565b5b60006107c284828501610789565b91505092915050565b6107d481610768565b82525050565b600081519050919050565b600082825260208201905092915050565b60005b838110156108145780820151818401526020810190506107f9565b60008484015250505050565b6000601f19601f8301169050919050565b600061083c826107da565b61084681856107e5565b93506108568185602086016107f6565b61085f81610820565b840191505092915050565b600073ffffffffffffffffffffffffffffffffffffffff82169050919050565b60006108958261086a565b9050919050565b6108a58161088a565b82525050565b60008115159050919050565b6108c0816108ab565b82525050565b600060a0830160008301516108de60008601826107cb565b50602083015184820360208601526108f68282610831565b915050604083015184820360408601526109108282610831565b9150506060830151610925606086018261089c565b50608083015161093860808601826108b7565b508091505092915050565b6000602082019050818103600083015261095d81846108c6565b905092915050565b600080fd5b600080fd5b7f4e487b7100000000000000000000000000000000000000000000000000000000600052604160045260246000fd5b6109a782610820565b810181811067ffffffffffffffff821117156109c6576109c561096f565b5b80604052505050565b60006109d9610754565b90506109e5828261099e565b919050565b600067ffffffffffffffff821115610a0557610a0461096f565b5b610a0e82610820565b9050602081019050919050565b82818337600083830152505050565b6000610a3d610a38846109ea565b6109cf565b905082815260208101848484011115610a5957610a5861096a565b5b610a64848285610a1b565b509392505050565b600082601f830112610a8157610a80610965565b5b8135610a91848260208601610a2a565b91505092915050565b60008060408385031215610ab157610ab061075e565b5b600083013567ffffffffffffffff811115610acf57610ace610763565b5b610adb85828601610a6c565b925050602083013567ffffffffffffffff811115610afc57610afb610763565b5b610b0885828601610a6c565b9150509250929050565b610b1b81610768565b82525050565b6000602082019050610b366000830184610b12565b92915050565b600082825260208201905092915050565b6000610b58826107da565b610b628185610b3c565b9350610b728185602086016107f6565b610b7b81610820565b840191505092915050565b610b8f8161088a565b82525050565b610b9e816108ab565b82525050565b600060a082019050610bb96000830188610b12565b8181036020830152610bcb8187610b4d565b90508181036040830152610bdf8186610b4d565b9050610bee6060830185610b86565b610bfb6080830184610b95565b9695505050505050565b7f4e487b7100000000000000000000000000000000000000000000000000000000600052602260045260246000fd5b60006002820490506001821680610c4c57607f821691505b602082108103610c5f57610c5e610c05565b5b50919050565b7f4e487b7100000000000000000000000000000000000000000000000000000000600052601160045260246000fd5b6000610c9f82610768565b91507fffffffffffffffffffffffffffffffffffffffffffffffffffffffffffffffff8203610cd157610cd0610c65565b5b600182019050919050565b60008190508160005260206000209050919050565b60006020601f8301049050919050565b600082821b905092915050565b600060088302610d3e7fffffffffffffffffffffffffffffffffffffffffffffffffffffffffffffffff82610d01565b610d488683610d01565b95508019841693508086168417925050509392505050565b6000819050919050565b6000610d85610d80610d7b84610768565b610d60565b610768565b9050919050565b6000819050919050565b610d9f83610d6a565b610db3610dab82610d8c565b848454610d0e565b825550505050565b600090565b610dc8610dbb565b610dd3818484610d96565b505050565b5b81811015610df757610dec600082610dc0565b600181019050610dd9565b5050565b601f821115610e3c57610e0d81610cdc565b610e1684610cf1565b81016020851015610e25578190505b610e39610e3185610cf1565b830182610dd8565b50505b505050565b600082821c905092915050565b6000610e5f60001984600802610e41565b1980831691505092915050565b6000610e788383610e4e565b9150826002028217905092915050565b610e91826107da565b67ffffffffffffffff811115610eaa57610ea961096f565b5b610eb48254610c34565b610ebf828285610dfb565b600060209050601f831160018114610ef25760008415610ee0578287015190505b610eea8582610e6c565b865550610f52565b601f198416610f0086610cdc565b60005b82811015610f2857848901518255600182019150602085019450602081019050610f03565b86831015610f455784890151610f41601f891682610e4e565b8355505b6001600288020188555050505b505050505050565b6000604082019050610f6f6000830185610b12565b610f7c6020830184610b86565b939250505056fea2646970667358221220f13c006d996259a89d1ceaa4990bd237841dc0d3afff018e0071c2f10cd6b9e664736f6c63430008180033",
  "linkReferences": {},
  "deployedLinkReferences": {}
}