{
  "_format": "hh-sol-artifact-1",
  "contractName": "BlockFind",
  "sourceName": "contracts/BlockFind.sol",
  "abi": [
    {
      "inputs": [],
      "stateMutability": "nonpayable",
      "type": "constructor"
    },
    {
      "inputs": [
        {
          "internalType": "address",
          "name": "sender",
          "type": "address"
        },
        {
          "internalType": "uint256",
          "name": "tokenId",
          "type": "uint256"
        },
        {
          "internalType": "address",
          "name": "owner",
          "type": "address"
        }
      ],
      "name": "ERC721IncorrectOwner",
      "type": "error"
    },
    {
      "inputs": [
        {
          "internalType": "address",
          "name": "operator",
          "type": "address"
        },
        {
          "internalType": "uint256",
          "name": "tokenId",
          "type": "uint256"
        }
      ],
      "name": "ERC721InsufficientApproval",
      "type": "error"
    },
    {
      "inputs": [
        {
          "internalType": "address",
          "name": "approver",
          "type": "address"
        }
      ],
      "name": "ERC721InvalidApprover",
      "type": "error"
    },
    {
      "inputs": [
        {
          "internalType": "address",
          "name": "operator",
          "type": "address"
        }
      ],
      "name": "ERC721InvalidOperator",
      "type": "error"
    },
    {
      "inputs": [
        {
          "internalType": "address",
          "name": "owner",
          "type": "address"
        }
      ],
      "name": "ERC721InvalidOwner",
      "type": "error"
    },
    {
      "inputs": [
        {
          "internalType": "address",
          "name": "receiver",
          "type": "address"
        }
      ],
      "name": "ERC721InvalidReceiver",
      "type": "error"
    },
    {
      "inputs": [
        {
          "internalType": "address",
          "name": "sender",
          "type": "address"
        }
      ],
      "name": "ERC721InvalidSender",
      "type": "error"
    },
    {
      "inputs": [
        {
          "internalType": "uint256",
          "name": "tokenId",
          "type": "uint256"
        }
      ],
      "name": "ERC721NonexistentToken",
      "type": "error"
    },
    {
      "anonymous": false,
      "inputs": [
        {
          "indexed": true,
          "internalType": "address",
          "name": "owner",
          "type": "address"
        },
        {
          "indexed": true,
          "internalType": "address",
          "name": "approved",
          "type": "address"
        },
        {
          "indexed": true,
          "internalType": "uint256",
          "name": "tokenId",
          "type": "uint256"
        }
      ],
      "name": "Approval",
      "type": "event"
    },
    {
      "anonymous": false,
      "inputs": [
        {
          "indexed": true,
          "internalType": "address",
          "name": "owner",
          "type": "address"
        },
        {
          "indexed": true,
          "internalType": "address",
          "name": "operator",
          "type": "address"
        },
        {
          "indexed": false,
          "internalType": "bool",
          "name": "approved",
          "type": "bool"
        }
      ],
      "name": "ApprovalForAll",
      "type": "event"
    },
    {
      "anonymous": false,
      "inputs": [
        {
          "indexed": false,
          "internalType": "uint256",
          "name": "id",
          "type": "uint256"
        }
      ],
      "name": "ItemDeleted",
      "type": "event"
    },
    {
      "anonymous": false,
      "inputs": [
        {
          "indexed": false,
          "internalType": "uint256",
          "name": "id",
          "type": "uint256"
        },
        {
          "indexed": false,
          "internalType": "string",
          "name": "name",
          "type": "string"
        },
        {
          "indexed": false,
          "internalType": "address",
          "name": "owner",
          "type": "address"
        }
      ],
      "name": "ItemRegistered",
      "type": "event"
    },
    {
      "anonymous": false,
      "inputs": [
        {
          "indexed": false,
          "internalType": "uint256",
          "name": "id",
          "type": "uint256"
        },
        {
          "indexed": false,
          "internalType": "enum BlockFind.Status",
          "name": "status",
          "type": "uint8"
        }
      ],
      "name": "StatusUpdated",
      "type": "event"
    },
    {
      "anonymous": false,
      "inputs": [
        {
          "indexed": true,
          "internalType": "address",
          "name": "from",
          "type": "address"
        },
        {
          "indexed": true,
          "internalType": "address",
          "name": "to",
          "type": "address"
        },
        {
          "indexed": true,
          "internalType": "uint256",
          "name": "tokenId",
          "type": "uint256"
        }
      ],
      "name": "Transfer",
      "type": "event"
    },
    {
      "inputs": [
        {
          "internalType": "address",
          "name": "to",
          "type": "address"
        },
        {
          "internalType": "uint256",
          "name": "tokenId",
          "type": "uint256"
        }
      ],
      "name": "approve",
      "outputs": [],
      "stateMutability": "nonpayable",
      "type": "function"
    },
    {
      "inputs": [
        {
          "internalType": "address",
          "name": "owner",
          "type": "address"
        }
      ],
      "name": "balanceOf",
      "outputs": [
        {
          "internalType": "uint256",
          "name": "",
          "type": "uint256"
        }
      ],
      "stateMutability": "view",
      "type": "function"
    },
    {
      "inputs": [
        {
          "internalType": "uint256",
          "name": "_id",
          "type": "uint256"
        }
      ],
      "name": "deleteItem",
      "outputs": [],
      "stateMutability": "nonpayable",
      "type": "function"
    },
    {
      "inputs": [
        {
          "internalType": "uint256",
          "name": "tokenId",
          "type": "uint256"
        }
      ],
      "name": "getApproved",
      "outputs": [
        {
          "internalType": "address",
          "name": "",
          "type": "address"
        }
      ],
      "stateMutability": "view",
      "type": "function"
    },
    {
      "inputs": [
        {
          "internalType": "uint256",
          "name": "_id",
          "type": "uint256"
        }
      ],
      "name": "getItem",
      "outputs": [
        {
          "components": [
            {
              "internalType": "uint256",
              "name": "id",
              "type": "uint256"
            },
            {
              "internalType": "string",
              "name": "name",
              "type": "string"
            },
            {
              "internalType": "string",
              "name": "description",
              "type": "string"
            },
            {
              "internalType": "address",
              "name": "owner",
              "type": "address"
            },
            {
              "internalType": "string",
              "name": "contactInfo",
              "type": "string"
            },
            {
              "internalType": "enum BlockFind.Status",
              "name": "status",
              "type": "uint8"
            },
            {
              "internalType": "uint256",
              "name": "timestamp",
              "type": "uint256"
            },
            {
              "internalType": "string",
              "name": "qrHash",
              "type": "string"
            },
            {
              "internalType": "string",
              "name": "image",
              "type": "string"
            }
          ],
          "internalType": "struct BlockFind.Item",
          "name": "",
          "type": "tuple"
        }
      ],
      "stateMutability": "view",
      "type": "function"
    },
    {
      "inputs": [
        {
          "internalType": "address",
          "name": "owner",
          "type": "address"
        },
        {
          "internalType": "address",
          "name": "operator",
          "type": "address"
        }
      ],
      "name": "isApprovedForAll",
      "outputs": [
        {
          "internalType": "bool",
          "name": "",
          "type": "bool"
        }
      ],
      "stateMutability": "view",
      "type": "function"
    },
    {
      "inputs": [],
      "name": "itemCount",
      "outputs": [
        {
          "internalType": "uint256",
          "name": "",
          "type": "uint256"
        }
      ],
      "stateMutability": "view",
      "type": "function"
    },
    {
      "inputs": [
        {
          "internalType": "uint256",
          "name": "",
          "type": "uint256"
        }
      ],
      "name": "items",
      "outputs": [
        {
          "internalType": "uint256",
          "name": "id",
          "type": "uint256"
        },
        {
          "internalType": "string",
          "name": "name",
          "type": "string"
        },
        {
          "internalType": "string",
          "name": "description",
          "type": "string"
        },
        {
          "internalType": "address",
          "name": "owner",
          "type": "address"
        },
        {
          "internalType": "string",
          "name": "contactInfo",
          "type": "string"
        },
        {
          "internalType": "enum BlockFind.Status",
          "name": "status",
          "type": "uint8"
        },
        {
          "internalType": "uint256",
          "name": "timestamp",
          "type": "uint256"
        },
        {
          "internalType": "string",
          "name": "qrHash",
          "type": "string"
        },
        {
          "internalType": "string",
          "name": "image",
          "type": "string"
        }
      ],
      "stateMutability": "view",
      "type": "function"
    },
    {
      "inputs": [
        {
          "internalType": "uint256",
          "name": "_id",
          "type": "uint256"
        }
      ],
      "name": "markFound",
      "outputs": [],
      "stateMutability": "nonpayable",
      "type": "function"
    },
    {
      "inputs": [
        {
          "internalType": "uint256",
          "name": "_id",
          "type": "uint256"
        }
      ],
      "name": "markReturned",
      "outputs": [],
      "stateMutability": "nonpayable",
      "type": "function"
    },
    {
      "inputs": [],
      "name": "name",
      "outputs": [
        {
          "internalType": "string",
          "name": "",
          "type": "string"
        }
      ],
      "stateMutability": "view",
      "type": "function"
    },
    {
      "inputs": [
        {
          "internalType": "uint256",
          "name": "tokenId",
          "type": "uint256"
        }
      ],
      "name": "ownerOf",
      "outputs": [
        {
          "internalType": "address",
          "name": "",
          "type": "address"
        }
      ],
      "stateMutability": "view",
      "type": "function"
    },
    {
      "inputs": [
        {
          "internalType": "string",
          "name": "_name",
          "type": "string"
        },
        {
          "internalType": "string",
          "name": "_description",
          "type": "string"
        },
        {
          "internalType": "string",
          "name": "_contactInfo",
          "type": "string"
        },
        {
          "internalType": "string",
          "name": "_qrHash",
          "type": "string"
        },
        {
          "internalType": "string",
          "name": "_image",
          "type": "string"
        }
      ],
      "name": "registerItem",
      "outputs": [],
      "stateMutability": "nonpayable",
      "type": "function"
    },
    {
      "inputs": [
        {
          "internalType": "uint256",
          "name": "_id",
          "type": "uint256"
        }
      ],
      "name": "reportLost",
      "outputs": [],
      "stateMutability": "nonpayable",
      "type": "function"
    },
    {
      "inputs": [
        {
          "internalType": "address",
          "name": "from",
          "type": "address"
        },
        {
          "internalType": "address",
          "name": "to",
          "type": "address"
        },
        {
          "internalType": "uint256",
          "name": "tokenId",
          "type": "uint256"
        }
      ],
      "name": "safeTransferFrom",
      "outputs": [],
      "stateMutability": "nonpayable",
      "type": "function"
    },
    {
      "inputs": [
        {
          "internalType": "address",
          "name": "from",
          "type": "address"
        },
        {
          "internalType": "address",
          "name": "to",
          "type": "address"
        },
        {
          "internalType": "uint256",
          "name": "tokenId",
          "type": "uint256"
        },
        {
          "internalType": "bytes",
          "name": "data",
          "type": "bytes"
        }
      ],
      "name": "safeTransferFrom",
      "outputs": [],
      "stateMutability": "nonpayable",
      "type": "function"
    },
    {
      "inputs": [
        {
          "internalType": "address",
          "name": "operator",
          "type": "address"
        },
        {
          "internalType": "bool",
          "name": "approved",
          "type": "bool"
        }
      ],
      "name": "setApprovalForAll",
      "outputs": [],
      "stateMutability": "nonpayable",
      "type": "function"
    },
    {
      "inputs": [
        {
          "internalType": "bytes4",
          "name": "interfaceId",
          "type": "bytes4"
        }
      ],
      "name": "supportsInterface",
      "outputs": [
        {
          "internalType": "bool",
          "name": "",
          "type": "bool"
        }
      ],
      "stateMutability": "view",
      "type": "function"
    },
    {
      "inputs": [],
      "name": "symbol",
      "outputs": [
        {
          "internalType": "string",
          "name": "",
          "type": "string"
        }
      ],
      "stateMutability": "view",
      "type": "function"
    },
    {
      "inputs": [
        {
          "internalType": "uint256",
          "name": "tokenId",
          "type": "uint256"
        }
      ],
      "name": "tokenURI",
      "outputs": [
        {
          "internalType": "string",
          "name": "",
          "type": "string"
        }
      ],
      "stateMutability": "view",
      "type": "function"
    },
    {
      "inputs": [
        {
          "internalType": "address",
          "name": "from",
          "type": "address"
        },
        {
          "internalType": "address",
          "name": "to",
          "type": "address"
        },
        {
          "internalType": "uint256",
          "name": "tokenId",
          "type": "uint256"
        }
      ],
      "name": "transferFrom",
      "outputs": [],
      "stateMutability": "nonpayable",
      "type": "function"
    },
    {
      "inputs": [
        {
          "internalType": "uint256",
          "name": "_id",
          "type": "uint256"
        },
        {
          "internalType": "address",
          "name": "_addr",
          "type": "address"
        }
      ],
      "name": "verifyOwnership",
      "outputs": [
        {
          "internalType": "bool",
          "name": "",
          "type": "bool"
        }
      ],
      "stateMutability": "view",
      "type": "function"
    }
  ],
  "bytecode": "0x608060405234801562000010575f80fd5b506040518060400160405280600e81526020017f426c6f636b46696e64204974656d0000000000000000000000000000000000008152506040518060400160405280600381526020017f4246490000000000000000000000000000000000000000000000000000000000815250815f90816200008d91906200030c565b5080600190816200009f91906200030c565b505050620003f0565b5f81519050919050565b7f4e487b71000000000000000000000000000000000000000000000000000000005f52604160045260245ffd5b7f4e487b71000000000000000000000000000000000000000000000000000000005f52602260045260245ffd5b5f60028204905060018216806200012457607f821691505b6020821081036200013a5762000139620000df565b5b50919050565b5f819050815f5260205f209050919050565b5f6020601f8301049050919050565b5f82821b905092915050565b5f600883026200019e7fffffffffffffffffffffffffffffffffffffffffffffffffffffffffffffffff8262000161565b620001aa868362000161565b95508019841693508086168417925050509392505050565b5f819050919050565b5f819050919050565b5f620001f4620001ee620001e884620001c2565b620001cb565b620001c2565b9050919050565b5f819050919050565b6200020f83620001d4565b620002276200021e82620001fb565b8484546200016d565b825550505050565b5f90565b6200023d6200022f565b6200024a81848462000204565b505050565b5b818110156200027157620002655f8262000233565b60018101905062000250565b5050565b601f821115620002c0576200028a8162000140565b620002958462000152565b81016020851015620002a5578190505b620002bd620002b48562000152565b8301826200024f565b50505b505050565b5f82821c905092915050565b5f620002e25f1984600802620002c5565b1980831691505092915050565b5f620002fc8383620002d1565b9150826002028217905092915050565b6200031782620000a8565b67ffffffffffffffff811115620003335762000332620000b2565b5b6200033f82546200010c565b6200034c82828562000275565b5f60209050601f83116001811462000382575f84156200036d578287015190505b620003798582620002ef565b865550620003e8565b601f198416620003928662000140565b5f5b82811015620003bb5784890151825560018201915060208501945060208101905062000394565b86831015620003db5784890151620003d7601f891682620002d1565b8355505b6001600288020188555050505b505050505050565b61469380620003fe5f395ff3fe608060405234801561000f575f80fd5b5060043610610140575f3560e01c80636352211e116100b6578063a22cb4651161007a578063a22cb46514610382578063b88d4fde1461039e578063bfb231d2146103ba578063c7719511146103f2578063c87b56dd1461040e578063e985e9c51461043e57610140565b80636352211e146102ca578063654fc833146102fa5780636bfb0d011461031657806370a082311461033457806395d89b411461036457610140565b8063102f7f9411610108578063102f7f941461020e57806323b872dd1461022a5780633129e7731461024657806342842e0e1461027657806353a12e04146102925780636298913f146102ae57610140565b806301ffc9a71461014457806306fdde0314610174578063081812fc14610192578063095ea7b3146101c257806309cc449d146101de575b5f80fd5b61015e60048036038101906101599190612e2d565b61046e565b60405161016b9190612e72565b60405180910390f35b61017c61054f565b6040516101899190612f15565b60405180910390f35b6101ac60048036038101906101a79190612f68565b6105de565b6040516101b99190612fd2565b60405180910390f35b6101dc60048036038101906101d79190613015565b6105f9565b005b6101f860048036038101906101f39190613053565b61060f565b6040516102059190612e72565b60405180910390f35b61022860048036038101906102239190612f68565b61069f565b005b610244600480360381019061023f9190613091565b610768565b005b610260600480360381019061025b9190612f68565b610867565b60405161026d9190613298565b60405180910390f35b610290600480360381019061028b9190613091565b610c55565b005b6102ac60048036038101906102a791906133e4565b610c74565b005b6102c860048036038101906102c39190612f68565b610f78565b005b6102e460048036038101906102df9190612f68565b6110b7565b6040516102f19190612fd2565b60405180910390f35b610314600480360381019061030f9190612f68565b6110c8565b005b61031e611357565b60405161032b91906134f6565b60405180910390f35b61034e6004803603810190610349919061350f565b61135d565b60405161035b91906134f6565b60405180910390f35b61036c611413565b6040516103799190612f15565b60405180910390f35b61039c60048036038101906103979190613564565b6114a3565b005b6103b860048036038101906103b39190613640565b6114b9565b005b6103d460048036038101906103cf9190612f68565b6114de565b6040516103e9999897969594939291906136cf565b60405180910390f35b61040c60048036038101906104079190612f68565b6117f1565b005b61042860048036038101906104239190612f68565b611930565b6040516104359190612f15565b60405180910390f35b6104586004803603810190610453919061377d565b611f13565b6040516104659190612e72565b60405180910390f35b5f7f80ac58cd000000000000000000000000000000000000000000000000000000007bffffffffffffffffffffffffffffffffffffffffffffffffffffffff1916827bffffffffffffffffffffffffffffffffffffffffffffffffffffffff1916148061053857507f5b5e139f000000000000000000000000000000000000000000000000000000007bffffffffffffffffffffffffffffffffffffffffffffffffffffffff1916827bffffffffffffffffffffffffffffffffffffffffffffffffffffffff1916145b80610548575061054782611fa1565b5b9050919050565b60605f805461055d906137e8565b80601f0160208091040260200160405190810160405280929190818152602001828054610589906137e8565b80156105d45780601f106105ab576101008083540402835291602001916105d4565b820191905f5260205f20905b8154815290600101906020018083116105b757829003601f168201915b5050505050905090565b5f6105e88261200a565b506105f282612090565b9050919050565b61060b82826106066120c9565b6120d0565b5050565b5f808311801561062157506006548311155b610660576040517f08c379a000000000000000000000000000000000000000000000000000000000815260040161065790613862565b60405180910390fd5b8173ffffffffffffffffffffffffffffffffffffffff16610680846120e2565b73ffffffffffffffffffffffffffffffffffffffff1614905092915050565b5f811180156106b057506006548111155b6106ef576040517f08c379a00000000000000000000000000000000000000000000000000000000081526004016106e690613862565b60405180910390fd5b600260075f8381526020019081526020015f206005015f6101000a81548160ff0219169083600381111561072657610725613147565b5b02179055507f2da7b23ca63c1eb969eee5fae4acb98186abecf5358b0354a82a5183ebca6b2a81600260405161075d929190613880565b60405180910390a150565b5f73ffffffffffffffffffffffffffffffffffffffff168273ffffffffffffffffffffffffffffffffffffffff16036107d8575f6040517f64a0ae920000000000000000000000000000000000000000000000000000000081526004016107cf9190612fd2565b60405180910390fd5b5f6107eb83836107e66120c9565b61211b565b90508373ffffffffffffffffffffffffffffffffffffffff168173ffffffffffffffffffffffffffffffffffffffff1614610861578382826040517f64283d7b000000000000000000000000000000000000000000000000000000008152600401610858939291906138a7565b60405180910390fd5b50505050565b61086f612cff565b5f8211801561088057506006548211155b6108bf576040517f08c379a00000000000000000000000000000000000000000000000000000000081526004016108b690613862565b60405180910390fd5b60075f8381526020019081526020015f20604051806101200160405290815f82015481526020016001820180546108f5906137e8565b80601f0160208091040260200160405190810160405280929190818152602001828054610921906137e8565b801561096c5780601f106109435761010080835404028352916020019161096c565b820191905f5260205f20905b81548152906001019060200180831161094f57829003601f168201915b50505050508152602001600282018054610985906137e8565b80601f01602080910402602001604051908101604052809291908181526020018280546109b1906137e8565b80156109fc5780601f106109d3576101008083540402835291602001916109fc565b820191905f5260205f20905b8154815290600101906020018083116109df57829003601f168201915b50505050508152602001600382015f9054906101000a900473ffffffffffffffffffffffffffffffffffffffff1673ffffffffffffffffffffffffffffffffffffffff1673ffffffffffffffffffffffffffffffffffffffff168152602001600482018054610a6a906137e8565b80601f0160208091040260200160405190810160405280929190818152602001828054610a96906137e8565b8015610ae15780601f10610ab857610100808354040283529160200191610ae1565b820191905f5260205f20905b815481529060010190602001808311610ac457829003601f168201915b50505050508152602001600582015f9054906101000a900460ff166003811115610b0e57610b0d613147565b5b6003811115610b2057610b1f613147565b5b815260200160068201548152602001600782018054610b3e906137e8565b80601f0160208091040260200160405190810160405280929190818152602001828054610b6a906137e8565b8015610bb55780601f10610b8c57610100808354040283529160200191610bb5565b820191905f5260205f20905b815481529060010190602001808311610b9857829003601f168201915b50505050508152602001600882018054610bce906137e8565b80601f0160208091040260200160405190810160405280929190818152602001828054610bfa906137e8565b8015610c455780601f10610c1c57610100808354040283529160200191610c45565b820191905f5260205f20905b815481529060010190602001808311610c2857829003601f168201915b5050505050815250509050919050565b610c6f83838360405180602001604052805f8152506114b9565b505050565b5f855111610cb7576040517f08c379a0000000000000000000000000000000000000000000000000000000008152600401610cae90613926565b60405180910390fd5b5f825111610cfa576040517f08c379a0000000000000000000000000000000000000000000000000000000008152600401610cf19061398e565b60405180910390fd5b600882604051610d0a91906139e6565b90815260200160405180910390205f9054906101000a900460ff1615610d65576040517f08c379a0000000000000000000000000000000000000000000000000000000008152600401610d5c90613a46565b60405180910390fd5b60065f815480929190610d7790613a91565b91905055506001600883604051610d8e91906139e6565b90815260200160405180910390205f6101000a81548160ff02191690831515021790555060405180610120016040528060065481526020018681526020018581526020013373ffffffffffffffffffffffffffffffffffffffff1681526020018481526020015f6003811115610e0757610e06613147565b5b81526020014281526020018381526020018281525060075f60065481526020019081526020015f205f820151815f01556020820151816001019081610e4c9190613c75565b506040820151816002019081610e629190613c75565b506060820151816003015f6101000a81548173ffffffffffffffffffffffffffffffffffffffff021916908373ffffffffffffffffffffffffffffffffffffffff1602179055506080820151816004019081610ebe9190613c75565b5060a0820151816005015f6101000a81548160ff02191690836003811115610ee957610ee8613147565b5b021790555060c0820151816006015560e0820151816007019081610f0d9190613c75565b50610100820151816008019081610f249190613c75565b50905050610f3433600654612326565b7fa3d89617a5e6e5b9541662946379863531fa40dd54355c6fc5d7c4c7d1a491cc6006548633604051610f6993929190613d44565b60405180910390a15050505050565b5f81118015610f8957506006548111155b610fc8576040517f08c379a0000000000000000000000000000000000000000000000000000000008152600401610fbf90613862565b60405180910390fd5b3373ffffffffffffffffffffffffffffffffffffffff16610fe8826110b7565b73ffffffffffffffffffffffffffffffffffffffff161461103e576040517f08c379a000000000000000000000000000000000000000000000000000000000815260040161103590613dca565b60405180910390fd5b600360075f8381526020019081526020015f206005015f6101000a81548160ff0219169083600381111561107557611074613147565b5b02179055507f2da7b23ca63c1eb969eee5fae4acb98186abecf5358b0354a82a5183ebca6b2a8160036040516110ac929190613880565b60405180910390a150565b5f6110c18261200a565b9050919050565b5f811180156110d957506006548111155b611118576040517f08c379a000000000000000000000000000000000000000000000000000000000815260040161110f90613862565b60405180910390fd5b5f73ffffffffffffffffffffffffffffffffffffffff1660075f8381526020019081526020015f206003015f9054906101000a900473ffffffffffffffffffffffffffffffffffffffff1673ffffffffffffffffffffffffffffffffffffffff16036111b9576040517f08c379a00000000000000000000000000000000000000000000000000000000081526004016111b090613e32565b60405180910390fd5b3373ffffffffffffffffffffffffffffffffffffffff166111d9826110b7565b73ffffffffffffffffffffffffffffffffffffffff161461122f576040517f08c379a000000000000000000000000000000000000000000000000000000000815260040161122690613dca565b60405180910390fd5b600860075f8381526020019081526020015f206007016040516112529190613ed0565b90815260200160405180910390205f6101000a81549060ff021916905560075f8281526020019081526020015f205f8082015f9055600182015f6112969190612d6f565b600282015f6112a59190612d6f565b600382015f6101000a81549073ffffffffffffffffffffffffffffffffffffffff0219169055600482015f6112da9190612d6f565b600582015f6101000a81549060ff0219169055600682015f9055600782015f6113039190612d6f565b600882015f6113129190612d6f565b505061131d81612419565b7f3d0be3a3bbdb36b253d40a546d15d6b7f402fc43e4cd4a067af359b0763b6f3c8160405161134c91906134f6565b60405180910390a150565b60065481565b5f8073ffffffffffffffffffffffffffffffffffffffff168273ffffffffffffffffffffffffffffffffffffffff16036113ce575f6040517f89c62b640000000000000000000000000000000000000000000000000000000081526004016113c59190612fd2565b60405180910390fd5b60035f8373ffffffffffffffffffffffffffffffffffffffff1673ffffffffffffffffffffffffffffffffffffffff1681526020019081526020015f20549050919050565b606060018054611422906137e8565b80601f016020809104026020016040519081016040528092919081815260200182805461144e906137e8565b80156114995780601f1061147057610100808354040283529160200191611499565b820191905f5260205f20905b81548152906001019060200180831161147c57829003601f168201915b5050505050905090565b6114b56114ae6120c9565b838361249b565b5050565b6114c4848484610768565b6114d86114cf6120c9565b85858585612674565b50505050565b6007602052805f5260405f205f91509050805f015490806001018054611503906137e8565b80601f016020809104026020016040519081016040528092919081815260200182805461152f906137e8565b801561157a5780601f106115515761010080835404028352916020019161157a565b820191905f5260205f20905b81548152906001019060200180831161155d57829003601f168201915b50505050509080600201805461158f906137e8565b80601f01602080910402602001604051908101604052809291908181526020018280546115bb906137e8565b80156116065780601f106115dd57610100808354040283529160200191611606565b820191905f5260205f20905b8154815290600101906020018083116115e957829003601f168201915b505050505090806003015f9054906101000a900473ffffffffffffffffffffffffffffffffffffffff1690806004018054611640906137e8565b80601f016020809104026020016040519081016040528092919081815260200182805461166c906137e8565b80156116b75780601f1061168e576101008083540402835291602001916116b7565b820191905f5260205f20905b81548152906001019060200180831161169a57829003601f168201915b505050505090806005015f9054906101000a900460ff16908060060154908060070180546116e4906137e8565b80601f0160208091040260200160405190810160405280929190818152602001828054611710906137e8565b801561175b5780601f106117325761010080835404028352916020019161175b565b820191905f5260205f20905b81548152906001019060200180831161173e57829003601f168201915b505050505090806008018054611770906137e8565b80601f016020809104026020016040519081016040528092919081815260200182805461179c906137e8565b80156117e75780601f106117be576101008083540402835291602001916117e7565b820191905f5260205f20905b8154815290600101906020018083116117ca57829003601f168201915b5050505050905089565b5f8111801561180257506006548111155b611841576040517f08c379a000000000000000000000000000000000000000000000000000000000815260040161183890613862565b60405180910390fd5b3373ffffffffffffffffffffffffffffffffffffffff16611861826110b7565b73ffffffffffffffffffffffffffffffffffffffff16146118b7576040517f08c379a00000000000000000000000000000000000000000000000000000000081526004016118ae90613dca565b60405180910390fd5b600160075f8381526020019081526020015f206005015f6101000a81548160ff021916908360038111156118ee576118ed613147565b5b02179055507f2da7b23ca63c1eb969eee5fae4acb98186abecf5358b0354a82a5183ebca6b2a816001604051611925929190613880565b60405180910390a150565b606061193b8261200a565b505f60075f8481526020019081526020015f20604051806101200160405290815f8201548152602001600182018054611973906137e8565b80601f016020809104026020016040519081016040528092919081815260200182805461199f906137e8565b80156119ea5780601f106119c1576101008083540402835291602001916119ea565b820191905f5260205f20905b8154815290600101906020018083116119cd57829003601f168201915b50505050508152602001600282018054611a03906137e8565b80601f0160208091040260200160405190810160405280929190818152602001828054611a2f906137e8565b8015611a7a5780601f10611a5157610100808354040283529160200191611a7a565b820191905f5260205f20905b815481529060010190602001808311611a5d57829003601f168201915b50505050508152602001600382015f9054906101000a900473ffffffffffffffffffffffffffffffffffffffff1673ffffffffffffffffffffffffffffffffffffffff1673ffffffffffffffffffffffffffffffffffffffff168152602001600482018054611ae8906137e8565b80601f0160208091040260200160405190810160405280929190818152602001828054611b14906137e8565b8015611b5f5780601f10611b3657610100808354040283529160200191611b5f565b820191905f5260205f20905b815481529060010190602001808311611b4257829003601f168201915b50505050508152602001600582015f9054906101000a900460ff166003811115611b8c57611b8b613147565b5b6003811115611b9e57611b9d613147565b5b815260200160068201548152602001600782018054611bbc906137e8565b80601f0160208091040260200160405190810160405280929190818152602001828054611be8906137e8565b8015611c335780601f10611c0a57610100808354040283529160200191611c33565b820191905f5260205f20905b815481529060010190602001808311611c1657829003601f168201915b50505050508152602001600882018054611c4c906137e8565b80601f0160208091040260200160405190810160405280929190818152602001828054611c78906137e8565b8015611cc35780601f10611c9a57610100808354040283529160200191611cc3565b820191905f5260205f20905b815481529060010190602001808311611ca657829003601f168201915b505050505081525050905060605f6003811115611ce357611ce2613147565b5b8260a001516003811115611cfa57611cf9613147565b5b03611d3c576040518060400160405280600a81526020017f52656769737465726564000000000000000000000000000000000000000000008152509050611e81565b60016003811115611d5057611d4f613147565b5b8260a001516003811115611d6757611d66613147565b5b03611da9576040518060400160405280600481526020017f4c6f7374000000000000000000000000000000000000000000000000000000008152509050611e80565b60026003811115611dbd57611dbc613147565b5b8260a001516003811115611dd457611dd3613147565b5b03611e16576040518060400160405280600581526020017f466f756e640000000000000000000000000000000000000000000000000000008152509050611e7f565b600380811115611e2957611e28613147565b5b8260a001516003811115611e4057611e3f613147565b5b03611e7e576040518060400160405280600881526020017f52657475726e656400000000000000000000000000000000000000000000000081525090505b5b5b5b5f8260e00151604051602001611e979190613f56565b60405160208183030381529060405290505f836020015184604001518385876101000151604051602001611ecf95949392919061433b565b6040516020818303038152906040529050611ee981612820565b604051602001611ef99190614469565b604051602081830303815290604052945050505050919050565b5f60055f8473ffffffffffffffffffffffffffffffffffffffff1673ffffffffffffffffffffffffffffffffffffffff1681526020019081526020015f205f8373ffffffffffffffffffffffffffffffffffffffff1673ffffffffffffffffffffffffffffffffffffffff1681526020019081526020015f205f9054906101000a900460ff16905092915050565b5f7f01ffc9a7000000000000000000000000000000000000000000000000000000007bffffffffffffffffffffffffffffffffffffffffffffffffffffffff1916827bffffffffffffffffffffffffffffffffffffffffffffffffffffffff1916149050919050565b5f80612015836120e2565b90505f73ffffffffffffffffffffffffffffffffffffffff168173ffffffffffffffffffffffffffffffffffffffff160361208757826040517f7e27328900000000000000000000000000000000000000000000000000000000815260040161207e91906134f6565b60405180910390fd5b80915050919050565b5f60045f8381526020019081526020015f205f9054906101000a900473ffffffffffffffffffffffffffffffffffffffff169050919050565b5f33905090565b6120dd8383836001612833565b505050565b5f60025f8381526020019081526020015f205f9054906101000a900473ffffffffffffffffffffffffffffffffffffffff169050919050565b5f80612126846120e2565b90505f73ffffffffffffffffffffffffffffffffffffffff168373ffffffffffffffffffffffffffffffffffffffff1614612167576121668184866129f2565b5b5f73ffffffffffffffffffffffffffffffffffffffff168173ffffffffffffffffffffffffffffffffffffffff16146121f2576121a65f855f80612833565b600160035f8373ffffffffffffffffffffffffffffffffffffffff1673ffffffffffffffffffffffffffffffffffffffff1681526020019081526020015f205f82825403925050819055505b5f73ffffffffffffffffffffffffffffffffffffffff168573ffffffffffffffffffffffffffffffffffffffff161461227157600160035f8773ffffffffffffffffffffffffffffffffffffffff1673ffffffffffffffffffffffffffffffffffffffff1681526020019081526020015f205f82825401925050819055505b8460025f8681526020019081526020015f205f6101000a81548173ffffffffffffffffffffffffffffffffffffffff021916908373ffffffffffffffffffffffffffffffffffffffff160217905550838573ffffffffffffffffffffffffffffffffffffffff168273ffffffffffffffffffffffffffffffffffffffff167fddf252ad1be2c89b69c2b068fc378daa952ba7f163c4a11628f55a4df523b3ef60405160405180910390a4809150509392505050565b5f73ffffffffffffffffffffffffffffffffffffffff168273ffffffffffffffffffffffffffffffffffffffff1603612396575f6040517f64a0ae9200000000000000000000000000000000000000000000000000000000815260040161238d9190612fd2565b60405180910390fd5b5f6123a283835f61211b565b90505f73ffffffffffffffffffffffffffffffffffffffff168173ffffffffffffffffffffffffffffffffffffffff1614612414575f6040517f73c6ac6e00000000000000000000000000000000000000000000000000000000815260040161240b9190612fd2565b60405180910390fd5b505050565b5f6124255f835f61211b565b90505f73ffffffffffffffffffffffffffffffffffffffff168173ffffffffffffffffffffffffffffffffffffffff160361249757816040517f7e27328900000000000000000000000000000000000000000000000000000000815260040161248e91906134f6565b60405180910390fd5b5050565b5f73ffffffffffffffffffffffffffffffffffffffff168373ffffffffffffffffffffffffffffffffffffffff160361250b575f6040517fa9fbf51f0000000000000000000000000000000000000000000000000000000081526004016125029190612fd2565b60405180910390fd5b5f73ffffffffffffffffffffffffffffffffffffffff168273ffffffffffffffffffffffffffffffffffffffff160361257b57816040517f5b08ba180000000000000000000000000000000000000000000000000000000081526004016125729190612fd2565b60405180910390fd5b8060055f8573ffffffffffffffffffffffffffffffffffffffff1673ffffffffffffffffffffffffffffffffffffffff1681526020019081526020015f205f8473ffffffffffffffffffffffffffffffffffffffff1673ffffffffffffffffffffffffffffffffffffffff1681526020019081526020015f205f6101000a81548160ff0219169083151502179055508173ffffffffffffffffffffffffffffffffffffffff168373ffffffffffffffffffffffffffffffffffffffff167f17307eab39ab6107e8899845ad3d59bd9653f200f220920489ca2b5937696c31836040516126679190612e72565b60405180910390a3505050565b5f8373ffffffffffffffffffffffffffffffffffffffff163b1115612819578273ffffffffffffffffffffffffffffffffffffffff1663150b7a02868685856040518563ffffffff1660e01b81526004016126d294939291906144dc565b6020604051808303815f875af192505050801561270d57506040513d601f19601f8201168201806040525081019061270a919061453a565b60015b61278e573d805f811461273b576040519150601f19603f3d011682016040523d82523d5f602084013e612740565b606091505b505f81510361278657836040517f64a0ae9200000000000000000000000000000000000000000000000000000000815260040161277d9190612fd2565b60405180910390fd5b805160208201fd5b63150b7a0260e01b7bffffffffffffffffffffffffffffffffffffffffffffffffffffffff1916817bffffffffffffffffffffffffffffffffffffffffffffffffffffffff19161461281757836040517f64a0ae9200000000000000000000000000000000000000000000000000000000815260040161280e9190612fd2565b60405180910390fd5b505b5050505050565b606061282c825f612ab5565b9050919050565b808061286b57505f73ffffffffffffffffffffffffffffffffffffffff168273ffffffffffffffffffffffffffffffffffffffff1614155b1561299d575f61287a8461200a565b90505f73ffffffffffffffffffffffffffffffffffffffff168373ffffffffffffffffffffffffffffffffffffffff16141580156128e457508273ffffffffffffffffffffffffffffffffffffffff168173ffffffffffffffffffffffffffffffffffffffff1614155b80156128f757506128f58184611f13565b155b1561293957826040517fa9fbf51f0000000000000000000000000000000000000000000000000000000081526004016129309190612fd2565b60405180910390fd5b811561299b57838573ffffffffffffffffffffffffffffffffffffffff168273ffffffffffffffffffffffffffffffffffffffff167f8c5be1e5ebec7d5bd14f71427d1e84f3dd0314c0f7b2291e5b200ac8c7c3b92560405160405180910390a45b505b8360045f8581526020019081526020015f205f6101000a81548173ffffffffffffffffffffffffffffffffffffffff021916908373ffffffffffffffffffffffffffffffffffffffff16021790555050505050565b6129fd838383612c3f565b612ab0575f73ffffffffffffffffffffffffffffffffffffffff168373ffffffffffffffffffffffffffffffffffffffff1603612a7157806040517f7e273289000000000000000000000000000000000000000000000000000000008152600401612a6891906134f6565b60405180910390fd5b81816040517f177e802f000000000000000000000000000000000000000000000000000000008152600401612aa7929190614565565b60405180910390fd5b505050565b60605f835103612ad55760405180602001604052805f8152509050612c39565b5f82612b0657600360028551612aeb919061458c565b612af591906145ec565b6004612b01919061461c565b612b2d565b6003600285516004612b18919061461c565b612b22919061458c565b612b2c91906145ec565b5b905060405191507f4142434445464748494a4b4c4d4e4f505152535455565758595a616263646566601f5261067083027f6768696a6b6c6d6e6f707172737475767778797a303132333435363738392b2f18603f526020820181810185865187016020810180515f82525b82841015612beb576003840193508351603f8160121c16518753600187019650603f81600c1c16518753600187019650603f8160061c16518753600187019650603f811651875360018701965050612b98565b80825288612c2a5760038a510660018114612c0d5760028114612c2057612c28565b603d6001880353603d6002880353612c28565b603d60018803535b505b86885284604052505050505050505b92915050565b5f8073ffffffffffffffffffffffffffffffffffffffff168373ffffffffffffffffffffffffffffffffffffffff1614158015612cf657508273ffffffffffffffffffffffffffffffffffffffff168473ffffffffffffffffffffffffffffffffffffffff161480612cb75750612cb68484611f13565b5b80612cf557508273ffffffffffffffffffffffffffffffffffffffff16612cdd83612090565b73ffffffffffffffffffffffffffffffffffffffff16145b5b90509392505050565b6040518061012001604052805f815260200160608152602001606081526020015f73ffffffffffffffffffffffffffffffffffffffff168152602001606081526020015f6003811115612d5557612d54613147565b5b81526020015f815260200160608152602001606081525090565b508054612d7b906137e8565b5f825580601f10612d8c5750612da9565b601f0160209004905f5260205f2090810190612da89190612dac565b5b50565b5b80821115612dc3575f815f905550600101612dad565b5090565b5f604051905090565b5f80fd5b5f80fd5b5f7fffffffff0000000000000000000000000000000000000000000000000000000082169050919050565b612e0c81612dd8565b8114612e16575f80fd5b50565b5f81359050612e2781612e03565b92915050565b5f60208284031215612e4257612e41612dd0565b5b5f612e4f84828501612e19565b91505092915050565b5f8115159050919050565b612e6c81612e58565b82525050565b5f602082019050612e855f830184612e63565b92915050565b5f81519050919050565b5f82825260208201905092915050565b5f5b83811015612ec2578082015181840152602081019050612ea7565b5f8484015250505050565b5f601f19601f8301169050919050565b5f612ee782612e8b565b612ef18185612e95565b9350612f01818560208601612ea5565b612f0a81612ecd565b840191505092915050565b5f6020820190508181035f830152612f2d8184612edd565b905092915050565b5f819050919050565b612f4781612f35565b8114612f51575f80fd5b50565b5f81359050612f6281612f3e565b92915050565b5f60208284031215612f7d57612f7c612dd0565b5b5f612f8a84828501612f54565b91505092915050565b5f73ffffffffffffffffffffffffffffffffffffffff82169050919050565b5f612fbc82612f93565b9050919050565b612fcc81612fb2565b82525050565b5f602082019050612fe55f830184612fc3565b92915050565b612ff481612fb2565b8114612ffe575f80fd5b50565b5f8135905061300f81612feb565b92915050565b5f806040838503121561302b5761302a612dd0565b5b5f61303885828601613001565b925050602061304985828601612f54565b9150509250929050565b5f806040838503121561306957613068612dd0565b5b5f61307685828601612f54565b925050602061308785828601613001565b9150509250929050565b5f805f606084860312156130a8576130a7612dd0565b5b5f6130b586828701613001565b93505060206130c686828701613001565b92505060406130d786828701612f54565b9150509250925092565b6130ea81612f35565b82525050565b5f82825260208201905092915050565b5f61310a82612e8b565b61311481856130f0565b9350613124818560208601612ea5565b61312d81612ecd565b840191505092915050565b61314181612fb2565b82525050565b7f4e487b71000000000000000000000000000000000000000000000000000000005f52602160045260245ffd5b6004811061318557613184613147565b5b50565b5f81905061319582613174565b919050565b5f6131a482613188565b9050919050565b6131b48161319a565b82525050565b5f61012083015f8301516131d05f8601826130e1565b50602083015184820360208601526131e88282613100565b915050604083015184820360408601526132028282613100565b91505060608301516132176060860182613138565b506080830151848203608086015261322f8282613100565b91505060a083015161324460a08601826131ab565b5060c083015161325760c08601826130e1565b5060e083015184820360e086015261326f8282613100565b91505061010083015184820361010086015261328b8282613100565b9150508091505092915050565b5f6020820190508181035f8301526132b081846131ba565b905092915050565b5f80fd5b5f80fd5b7f4e487b71000000000000000000000000000000000000000000000000000000005f52604160045260245ffd5b6132f682612ecd565b810181811067ffffffffffffffff82111715613315576133146132c0565b5b80604052505050565b5f613327612dc7565b905061333382826132ed565b919050565b5f67ffffffffffffffff821115613352576133516132c0565b5b61335b82612ecd565b9050602081019050919050565b828183375f83830152505050565b5f61338861338384613338565b61331e565b9050828152602081018484840111156133a4576133a36132bc565b5b6133af848285613368565b509392505050565b5f82601f8301126133cb576133ca6132b8565b5b81356133db848260208601613376565b91505092915050565b5f805f805f60a086880312156133fd576133fc612dd0565b5b5f86013567ffffffffffffffff81111561341a57613419612dd4565b5b613426888289016133b7565b955050602086013567ffffffffffffffff81111561344757613446612dd4565b5b613453888289016133b7565b945050604086013567ffffffffffffffff81111561347457613473612dd4565b5b613480888289016133b7565b935050606086013567ffffffffffffffff8111156134a1576134a0612dd4565b5b6134ad888289016133b7565b925050608086013567ffffffffffffffff8111156134ce576134cd612dd4565b5b6134da888289016133b7565b9150509295509295909350565b6134f081612f35565b82525050565b5f6020820190506135095f8301846134e7565b92915050565b5f6020828403121561352457613523612dd0565b5b5f61353184828501613001565b91505092915050565b61354381612e58565b811461354d575f80fd5b50565b5f8135905061355e8161353a565b92915050565b5f806040838503121561357a57613579612dd0565b5b5f61358785828601613001565b925050602061359885828601613550565b9150509250929050565b5f67ffffffffffffffff8211156135bc576135bb6132c0565b5b6135c582612ecd565b9050602081019050919050565b5f6135e46135df846135a2565b61331e565b905082815260208101848484011115613600576135ff6132bc565b5b61360b848285613368565b509392505050565b5f82601f830112613627576136266132b8565b5b81356136378482602086016135d2565b91505092915050565b5f805f806080858703121561365857613657612dd0565b5b5f61366587828801613001565b945050602061367687828801613001565b935050604061368787828801612f54565b925050606085013567ffffffffffffffff8111156136a8576136a7612dd4565b5b6136b487828801613613565b91505092959194509250565b6136c98161319a565b82525050565b5f610120820190506136e35f83018c6134e7565b81810360208301526136f5818b612edd565b90508181036040830152613709818a612edd565b90506137186060830189612fc3565b818103608083015261372a8188612edd565b905061373960a08301876136c0565b61374660c08301866134e7565b81810360e08301526137588185612edd565b905081810361010083015261376d8184612edd565b90509a9950505050505050505050565b5f806040838503121561379357613792612dd0565b5b5f6137a085828601613001565b92505060206137b185828601613001565b9150509250929050565b7f4e487b71000000000000000000000000000000000000000000000000000000005f52602260045260245ffd5b5f60028204905060018216806137ff57607f821691505b602082108103613812576138116137bb565b5b50919050565b7f4974656d20646f6573206e6f74206578697374000000000000000000000000005f82015250565b5f61384c601383612e95565b915061385782613818565b602082019050919050565b5f6020820190508181035f83015261387981613840565b9050919050565b5f6040820190506138935f8301856134e7565b6138a060208301846136c0565b9392505050565b5f6060820190506138ba5f830186612fc3565b6138c760208301856134e7565b6138d46040830184612fc3565b949350505050565b7f4e616d65207265717569726564000000000000000000000000000000000000005f82015250565b5f613910600d83612e95565b915061391b826138dc565b602082019050919050565b5f6020820190508181035f83015261393d81613904565b9050919050565b7f51522068617368207265717569726564000000000000000000000000000000005f82015250565b5f613978601083612e95565b915061398382613944565b602082019050919050565b5f6020820190508181035f8301526139a58161396c565b9050919050565b5f81905092915050565b5f6139c082612e8b565b6139ca81856139ac565b93506139da818560208601612ea5565b80840191505092915050565b5f6139f182846139b6565b915081905092915050565b7f5152206861736820616c726561647920726567697374657265640000000000005f82015250565b5f613a30601a83612e95565b9150613a3b826139fc565b602082019050919050565b5f6020820190508181035f830152613a5d81613a24565b9050919050565b7f4e487b71000000000000000000000000000000000000000000000000000000005f52601160045260245ffd5b5f613a9b82612f35565b91507fffffffffffffffffffffffffffffffffffffffffffffffffffffffffffffffff8203613acd57613acc613a64565b5b600182019050919050565b5f819050815f5260205f209050919050565b5f6020601f8301049050919050565b5f82821b905092915050565b5f60088302613b347fffffffffffffffffffffffffffffffffffffffffffffffffffffffffffffffff82613af9565b613b3e8683613af9565b95508019841693508086168417925050509392505050565b5f819050919050565b5f613b79613b74613b6f84612f35565b613b56565b612f35565b9050919050565b5f819050919050565b613b9283613b5f565b613ba6613b9e82613b80565b848454613b05565b825550505050565b5f90565b613bba613bae565b613bc5818484613b89565b505050565b5b81811015613be857613bdd5f82613bb2565b600181019050613bcb565b5050565b601f821115613c2d57613bfe81613ad8565b613c0784613aea565b81016020851015613c16578190505b613c2a613c2285613aea565b830182613bca565b50505b505050565b5f82821c905092915050565b5f613c4d5f1984600802613c32565b1980831691505092915050565b5f613c658383613c3e565b9150826002028217905092915050565b613c7e82612e8b565b67ffffffffffffffff811115613c9757613c966132c0565b5b613ca182546137e8565b613cac828285613bec565b5f60209050601f831160018114613cdd575f8415613ccb578287015190505b613cd58582613c5a565b865550613d3c565b601f198416613ceb86613ad8565b5f5b82811015613d1257848901518255600182019150602085019450602081019050613ced565b86831015613d2f5784890151613d2b601f891682613c3e565b8355505b6001600288020188555050505b505050505050565b5f606082019050613d575f8301866134e7565b8181036020830152613d698185612edd565b9050613d786040830184612fc3565b949350505050565b7f4e6f74206f776e657200000000000000000000000000000000000000000000005f82015250565b5f613db4600983612e95565b9150613dbf82613d80565b602082019050919050565b5f6020820190508181035f830152613de181613da8565b9050919050565b7f4974656d20616c72656164792064656c657465640000000000000000000000005f82015250565b5f613e1c601483612e95565b9150613e2782613de8565b602082019050919050565b5f6020820190508181035f830152613e4981613e10565b9050919050565b5f8154613e5c816137e8565b613e6681866139ac565b9450600182165f8114613e805760018114613e9557613ec7565b60ff1983168652811515820286019350613ec7565b613e9e85613ad8565b5f5b83811015613ebf57815481890152600182019150602081019050613ea0565b838801955050505b50505092915050565b5f613edb8284613e50565b915081905092915050565b7f68747470733a2f2f6170692e71727365727665722e636f6d2f76312f637265615f8201527f74652d71722d636f64652f3f73697a653d3530307835303026646174613d0000602082015250565b5f613f40603e836139ac565b9150613f4b82613ee6565b603e82019050919050565b5f613f6082613f34565b9150613f6c82846139b6565b915081905092915050565b7f7b000000000000000000000000000000000000000000000000000000000000005f82015250565b5f613fab6001836139ac565b9150613fb682613f77565b600182019050919050565b7f226e616d65223a202200000000000000000000000000000000000000000000005f82015250565b5f613ff56009836139ac565b915061400082613fc1565b600982019050919050565b7f222c0000000000000000000000000000000000000000000000000000000000005f82015250565b5f61403f6002836139ac565b915061404a8261400b565b600282019050919050565b7f226465736372697074696f6e223a2022000000000000000000000000000000005f82015250565b5f6140896010836139ac565b915061409482614055565b601082019050919050565b7f22696d616765223a2022000000000000000000000000000000000000000000005f82015250565b5f6140d3600a836139ac565b91506140de8261409f565b600a82019050919050565b7f2261747472696275746573223a205b00000000000000000000000000000000005f82015250565b5f61411d600f836139ac565b9150614128826140e9565b600f82019050919050565b7f7b2274726169745f74797065223a2022537461747573222c202276616c7565225f8201527f3a20220000000000000000000000000000000000000000000000000000000000602082015250565b5f61418d6023836139ac565b915061419882614133565b602382019050919050565b7f227d2c00000000000000000000000000000000000000000000000000000000005f82015250565b5f6141d76003836139ac565b91506141e2826141a3565b600382019050919050565b7f7b2274726169745f74797065223a20224974656d20496d616765222c202276615f8201527f6c7565223a202200000000000000000000000000000000000000000000000000602082015250565b5f6142476027836139ac565b9150614252826141ed565b602782019050919050565b7f227d0000000000000000000000000000000000000000000000000000000000005f82015250565b5f6142916002836139ac565b915061429c8261425d565b600282019050919050565b7f5d000000000000000000000000000000000000000000000000000000000000005f82015250565b5f6142db6001836139ac565b91506142e6826142a7565b600182019050919050565b7f7d000000000000000000000000000000000000000000000000000000000000005f82015250565b5f6143256001836139ac565b9150614330826142f1565b600182019050919050565b5f61434582613f9f565b915061435082613fe9565b915061435c82886139b6565b915061436782614033565b91506143728261407d565b915061437e82876139b6565b915061438982614033565b9150614394826140c7565b91506143a082866139b6565b91506143ab82614033565b91506143b682614111565b91506143c182614181565b91506143cd82856139b6565b91506143d8826141cb565b91506143e38261423b565b91506143ef82846139b6565b91506143fa82614285565b9150614405826142cf565b915061441082614319565b91508190509695505050505050565b7f646174613a6170706c69636174696f6e2f6a736f6e3b6261736536342c0000005f82015250565b5f614453601d836139ac565b915061445e8261441f565b601d82019050919050565b5f61447382614447565b915061447f82846139b6565b915081905092915050565b5f81519050919050565b5f82825260208201905092915050565b5f6144ae8261448a565b6144b88185614494565b93506144c8818560208601612ea5565b6144d181612ecd565b840191505092915050565b5f6080820190506144ef5f830187612fc3565b6144fc6020830186612fc3565b61450960408301856134e7565b818103606083015261451b81846144a4565b905095945050505050565b5f8151905061453481612e03565b92915050565b5f6020828403121561454f5761454e612dd0565b5b5f61455c84828501614526565b91505092915050565b5f6040820190506145785f830185612fc3565b61458560208301846134e7565b9392505050565b5f61459682612f35565b91506145a183612f35565b92508282019050808211156145b9576145b8613a64565b5b92915050565b7f4e487b71000000000000000000000000000000000000000000000000000000005f52601260045260245ffd5b5f6145f682612f35565b915061460183612f35565b925082614611576146106145bf565b5b828204905092915050565b5f61462682612f35565b915061463183612f35565b925082820261463f81612f35565b9150828204841483151761465657614655613a64565b5b509291505056fea264697066735822122045099b3bb84bae65ccd786ab223558fe428d9750710154c3565dc86e8e7bafd264736f6c63430008180033",
  "linkReferences": {},
  "deployedLinkReferences": {}
}